:020000040800F2
:10000000C8080020D5000008912500083D1D000803
:1000100000000000000000000000000000000000E0
:10002000000000000000000000000000952500080E
:10003000000000000000000093250008352600089D
:10004000E7000008E7000008E7000008E7000008F4
:10005000E7000008E7000008E7000008E7000008E4
:1000600000000000E7000008E7000008E7000008C3
:10007000E7000008E700000800000000E7000008B3
:100080000000000000000000000000000000000070
:10009000E700000800000000E7000008E700000893
:1000A00000000000E7000008000000000000000061
:1000B000192B0008411D000800000000000000008E
:1000C0000348854600F046FC00480047B12D000873
:1000D000C80800200448804704480047FEE7FEE7C0
:1000E000FEE7FEE7FEE7FEE7C5260008C1000008C0
:1000F00030B50B46014600202022012409E00D46C0
:10010000D5409D4205D31D469540491B2546954047
:1001100040191546521E002DF1DC30BDF0B51FB45C
:100120000646002082B005464024019100901BE065
:10013000019922460F46304600F048FB049A059B81
:10014000801A994110D310461946224600F02EFB22
:10015000361A8F410197224601200021009F00F0AE
:1001600025FB38184D4100902046641E0028DFDC36
:10017000019B00982946324607B0F0BDD2B201E09B
:100180000270401C491EFBD270470022F6E710B5F2
:1001900013460A4604461946FFF7F0FF204610BDF5
:1001A00030B505462A460B4610781C78521C5B1C5D
:1001B000002801D0A042F7D0002C03D0002802D0A4
:1001C0006D1CEFE7284630BD421C0178401C002919
:1001D000FBD1801A7047F8B502464A40D40F42005E
:1001E0004B0052085B089A4202D20246084611466A
:1001F0004A0023D0C30D4A00DDB2120EAD1A202DE5
:1002000035DA49020126490AF6058A19002C00D080
:10021000524220214F1B1146B9402A411018C20DED
:100220009A4221D0002C17D0012D08DCDA05801A63
:10023000D20F8019D207DBB200F0F4FAF8BDDA056C
:10024000801A012340001B06C01880185A428018EB
:10025000CA0F1043490007E04908C2071143DA05F5
:10026000801A80194008801800F0D4FAF8BD6100A7
:100270000122511A001BF7E70122D2075140AAE7D9
:100280000122D2075040A6E7024670B54A40D30F7C
:10029000DB0740002DD04A002AD0010E140E0002C8
:1002A00012020919400A520A8418E501044654430F
:1002B000000A120A2E045043A4194219200CC54307
:1002C000AA18120C0125AD03521C521912047F39D1
:1002D000240400D0521C104301D44000491EC2B275
:1002E0000C06C0092018401C4008802A02D003E0F8
:1002F000002070BD40084000002900DA00201843AB
:1003000070BD70B502464A40D50F40004A00ED0767
:1003100040085208002814D0002A12D0C40DD30D72
:1003200041020120C0055202490A520AE41A091882
:1003300012187D34914201D3641C00E04900002C66
:1003400001DA002070BD0023914201D3891A0343D2
:10035000400849000028F7D100290AD0914202D173
:100360000121C90705E0914201D2012101E00121EB
:10037000C943E005C018401900F04CFA70BD4200B6
:1003800005D04200120E52428A4201DB0020704723
:10039000C905081870470000F0B5074608465840E0
:1003A00087B0C00F049048000E4659004008490825
:1003B000BC1A884105D2384631461E4617460B46C0
:1003C00002465800400810434CD0300D03904005C1
:1003D0005900400D490D0590401A0290402872DAEC
:1003E00018030121000B09050843019004980092AD
:1003F000002805D0019952420020884100920190C6
:10040000029840210A1A0199009800F0CFF9054698
:100410000C466B4607CB00F0EAF9C0197141039A0C
:100420000E0D0023D71756401A467A40164344D083
:10043000049A002A2DD0029A012A039A15DC12058B
:10044000C01A914101263605001C7141D20F059E4C
:10045000D2070093019202962A46234600F028FA1A
:1004600007B0F0BD38463146FAE71605224A0F4676
:10047000B218C01AB74101210905001C4F410018EC
:100480007F41114618187941E20F10436D196441FC
:1004900013E0E2076D0815436408C2071443039A8A
:1004A00001261205C01A91413605001C7141CE0784
:1004B000400830434908C01851412A46234600F0FD
:1004C000EAF9CDE7FFE7049801224000C117121AAC
:1004D00000238B4104983146C417381AA141EEE736
:1004E00030B40124E407634030BC55E730B4012444
:1004F000E407614030BC4FE70000E0FFF0B51FB4F7
:1005000088B00B990998002448400999C00F490008
:1005100049080991C0070B990090490049080B91BF
:1005200009990898A64608431CD00B990A980843D5
:1005300018D0099801244000420D4800410D099847
:1005400024050003000B204309900B980003000BC7
:1005500020430B9050181C4940180022019014466B
:10056000104605E0002001460DB0F0BD032801DA79
:10057000034600E003239C46C11A0AAE0AE05F006E
:1005800008ADED5B4F00F75B7D430027AA187C4167
:10059000491C5B1E6145F2DD410004AB5A52210447
:1005A000120C0A43240C401C0828DFDB019802903F
:1005B0000099704601910090059B049A079906984E
:1005C00000F076F9D0E700000DFCFFFFF0B50C4617
:1005D0005C4085B0E40FE40703944C0000266408F7
:1005E00059009446490802460296224321D06246A9
:1005F0000A431ED06200570D4A000E032303550D17
:10060000012402462C492405781B1B0B360B40188D
:1006100023432643614600901C46501AB44103D33D
:100620000098401C009002E0921800985B4100285E
:1006300003DA0020014605B0F0BD002001210905C4
:100640000746864611E064461D46141BB54106D395
:100650006546521BB341744607430C43A646CD077B
:1006600040084908284392185B4105460D43EAD1EA
:100670001046184313D06046194650407140084355
:1006800006D06046101AB34106D20122002306E0CC
:1006900000220123DB0702E00122D243531000981D
:1006A00074460105381C6141029C039D0019694193
:1006B00000F0F1F8BFE70000FD03000010B50022D4
:1006C0009623114600F0AEF810BD00000EB50549A6
:1006D0000291002100910A460B46019100F0E8F8D2
:1006E00003B000BD33040000410040020122400A73
:1006F000D205090E80187F2901DA0020704796295B
:1007000003DC9622511AC8407047963988407047DA
:100710004A0009030123090B1B051943094B10B5B6
:10072000520D9A4201DA002010BD064B34339A4232
:1007300003DC9A1A00F04AF810BD034951188840AA
:1007400010BD0000FF030000CDFBFFFFC20FD2076A
:10075000400040080BD0C10D0723DB01C91840023F
:100760000905400A1143C2084007114370470020A1
:1007700001467047CB0FDB07490010B54908024618
:100780000A4307D00A0D07240903E401090B121BD1
:10079000002A01DC002010BDC900440F0C43C10039
:1007A000E018D205801800F035F810BD10B5202AE9
:1007B00004DB0146203A9140002010BD91402023E7
:1007C0009C1A0346E3401943904010BD10B5202AFF
:1007D00004DB0846203AD040002110BD0B46D34030
:1007E000D0402024A21A91400843194610BD10B5EC
:1007F000202A06DBCB170846203A1041C1170B43CD
:1008000006E00B461341D0402024A21A9140084331
:10081000194610BD002904DA401C490001D14008E6
:100820004000704770B40024050C05D1102400046A
:1008300002D1002921D01124050E01D10002083473
:10084000050F01D10001241D850F01D18000A41CDA
:10085000002801DB4000641C002908D020252E1B45
:100860000D46F540A14000D001212943084301066F
:100870001B1B000ADB1D02D5002070BC7047DB0586
:10088000181880180029F8DA401C4900F5D170BC0E
:1008900040084000704710B5002B08DA0024401CC7
:1008A000614192185B411A4301D14008400010BDDC
:1008B000F0B51FB482B005460C0003D0084602F024
:1008C00057F902E002F054F9203002460090214628
:1008D0002846FFF76BFF049B059A04460F46184312
:1008E0001143084314D0184610431BD000984021F0
:1008F0000A1A18460599FFF769FF05460E46009A41
:1009000005990498FFF752FF084305D0012004E041
:100910002046394607B0F0BD0020C11705430E43FD
:100920002C43374300990E986305401A7905E40A71
:1009300000220C43FD0A0A3002D500200146E9E7F7
:100940000105101969410C9C0D9D00196941FFF7C3
:10095000A2FFDFE7064C0125064E05E0E36807CC61
:100960002B430C3C98471034B442F7D3FFF7ACFB51
:10097000703300089033000870B58C180578401C5F
:100980006B075B0F01D10378401C2A1106D1027856
:10099000401C03E006780E70401C491C5B1EF9D118
:1009A0002B0705D40023521E0DD40B70491CFAE707
:1009B0000378401CCB1A921C03E01D780D70491C73
:1009C0005B1C521EF9D5A142D8D3002070BD000097
:1009D00038B50446064805490068FFF789FB6043BF
:1009E00000E0401E00900028FBD138BD40420F00BF
:1009F00058010020F8B50024244E04E0641CE4B241
:100A0000012000F0FBF93068400701D40A2CF5D32F
:100A10000A2C02D11EA002F09BF81C4F4037386808
:100A2000204C0025E08004E06D1CEDB2012000F0B8
:100A3000E5F93068400701D40A2DF5D30A2D02D11B
:100A400019A002F085F8386880B26081FFF73EFE99
:100A500005460E462089FFF739FE0022174BFFF7A7
:100A60004DFD2A463346FFF7B1FDFFF783FE0546ED
:100A70002061E088FFF722FE2946FFF705FC0A21E6
:100A8000C943FFF77CFCE060F8BD00000024014092
:100A9000CDA8B5C034D7AABBBBCAA7B0DCA3A10DF3
:100AA0000A00000000000020CDA8B5C03137D7AA49
:100AB000BBBBCAA7B0DCA3A10D0A00000000084020
:100AC000F8B506460D464036317C01290DD001218E
:100AD000317401688A68520709D5416D202211439B
:100AE0004165002030740120F8BD0220F8BD174B8D
:100AF0006A68D80547109A42154C8A6A2B6812D04A
:100B00005B035B0B1A438A622968490305D5A16818
:100B10000143A1600A20FFF75BFF2868800312D51C
:100B2000A06838430EE05B035B0B9A438A62296836
:100B3000490302D5A1688143A1602868800302D5DA
:100B4000A068B843A06000203074F8BD0110000018
:100B50000027014070B5040006D0606D26460025D0
:100B60004036002802D006E0012070BDA56535742E
:100B7000204600F0D3F8606DC00603D42168886871
:100B8000400705D5606D1021084360653574EBE7BB
:100B9000606DFF2201329043022210436065886835
:100BA0008207920F5B48012A02D10A68D2072BD133
:100BB000032362689B079A4205D05B429A4202D0A7
:100BC0005B009A4209D10A69920092080A61216881
:100BD0000A6963681A430A610CE00A699200920884
:100BE0000A6181680F229204914381608168626882
:100BF000114381602168CA6818239A43CA6021683A
:100C0000CA68A3681A43CA608168012252069143E8
:100C100081608168A28E52061143816020688168DC
:100C2000C90004D481680122120711438160206841
:100C3000C168394A1140C1602069E168022825D0A5
:100C400000200143204620300278037B52035B00E2
:100C50001A431143226B1143A26992031143E269C3
:100C6000D20311432268D3681943D160616A0A46EE
:100C7000FF3AC23A05D0A26A11432268D3681943E9
:100C8000D16042780121012A02D00BE00420D8E78C
:100C90000078002823D0606D202210436065A06D8D
:100CA0000843A065E06B012820681FD00169C907CF
:100CB00003D0016949084900016120684169C908F8
:100CC000C900416120684169A26B11434161A5657A
:100CD000606D80088000401C6065002070BD206849
:100CE000C26801231B041A43C260DBE70269FF23C9
:100CF0009B009A43026120680269236CA66C1A4328
:100D0000636C33431A430261206802690A4302613B
:100D1000D3E70000002701401902FEFF10B586B09E
:100D2000044614216846FFF730FA0E4920688842CD
:100D300016D10D48416B421511434163C16A01222E
:100D40001143C162C06A69461040059010200090AE
:100D500003200190002002900520000700F060F8B9
:100D600006B010BD002401400010024030B501461D
:100D700020314A790023022A04D00422C2630B7175
:100D8000012030BD026814680E25AC43146002686F
:100D90001468640864001460446C1C22144001222E
:100DA0001546006CA54045604A7118460B7130BD70
:100DB00070B50024014620314A79022A03D004216B
:100DC000C163012418E0026813680E25AB43136069
:100DD000026813685B085B001360436C1C221340BD
:100DE000012215469D40036C5D604A7100220A7124
:100DF000816B002900D08847204670BD70B504463D
:100E000000F0EAF80546601C02D004480078241877
:100E100000F0E2F8401BA042FAD370BD4C01002064
:100E2000F8B5002303240125B8E032462E469E4043
:100E3000B446324079D00E79B607B60F012E01D0F4
:100E4000022E17D186682746B6465E00B740009648
:100E50007646BE43B646CF68009EB74076463743D7
:100E6000876046686746BE430F79FF06FF0F9F40C5
:100E7000374347600E79F643B6070ED0C66827465B
:100E8000B4465E00B646B7406646BE43B4468F6879
:100E90007646B74066463743C7600E79B607B60F49
:100EA000022E14D1DE08B60036180096366A5F07A7
:100EB000B446FE0E0F27B646B7406646BE43B4465C
:100EC0000F697646B74066463743009E376206682C
:100ED0002746B4465E00B646B7406646BE430F7925
:100EE000B446BF07BF0F7646B74066463743076034
:100EF0004E68B603B60F50D02B4F7E6B2E437E63E9
:100F00009F082A4EBF00BE190096B6680F27B44648
:100F10009E07360FB646B7406646BE4305273F07D5
:100F2000B446B84202D1002710E036E0204FB84264
:100F300001D101270AE01F4FB84201D1022705E085
:100F40001D4FB84201D1052700E006277646B7407D
:100F500066463743009EB760184E36684F68964322
:100F6000FF0300D51643154F3E607E684F689643D9
:100F7000BF0300D51643114F7E60BE684F6896438D
:100F8000FF0200D516430D4FBE60FE684F689643C2
:100F9000BF0200D51643094AD6605B1C0A68164694
:100FA000DA4000D041E7F8BD0010024000000140E7
:100FB0000004005000080050001C005000040140D4
:100FC0000069084000D001207047002A01D08161EB
:100FD00070478162704700000148806870470000D8
:100FE0004C010020024881680278891881607047AE
:100FF0004C01002010B5084800240168402211432C
:101000000160032000F00AF8002801D0012401E06B
:1010100000F026F8204610BD0020024070B50446BE
:101020000D4D7D202978C000FFF762F801460B487E
:101030000068FFF75DF800F01BFC002809D1042CC4
:1010400007D200222146401E00F022F800206C60EA
:1010500070BD012070BD00004C010020580100202F
:101060000448416B012211434163816B0204114327
:101070008163704700100240002805DBC106C90EDD
:1010800001208840014908607047000000E100E04D
:1010900010B501F0A9FD10BDF8B504460078002791
:1010A0004E4D800671D54D4E403EB06BC00004D40D
:1010B000B06BA9050843B063012749480168C90519
:1010C00011D40168821511430160FFF785FF00907C
:1010D00005E0FFF781FF0099401A642837D840489F
:1010E0000068C005F5D532680321090560680A402B
:1010F0000140914208D08103890F032904D131684E
:10110000890301D50120F8BD2A69032109040A4099
:1011100022D0084090421FD0207880061CD5286934
:101120002A6988430121C9040A432A612A698A433A
:101130002A612861C0050FD5FFF74EFF009008E037
:10114000FFF74AFF0099411A2648814201D903203E
:10115000F8BD28698005F3D561688803800F0328EE
:1011600005D132680005824301400A433260286994
:10117000032261681204114008432861002F04D043
:10118000B16B012000078143B1632078800705D54A
:10119000E8680C218843A1680843E860207840078C
:1011A00006D5E868032189028843E1680843E860BE
:1011B0002078000706D5E8680321090388432169E0
:1011C0000843E8602078000606D5E8680321890412
:1011D000884361690843E8600020F8BD4010024080
:1011E0000070004088130000F8B50E46050038D0A6
:1011F0005E480068C007C00FB04214D25B4C206844
:101200004008400030432060FFF7E6FE074605E057
:10121000FFF7E2FEC11B564881427AD82068C0071A
:10122000C00FB042F4D12878524C800705D5E06851
:10123000F0218843A9680843E0602878C00752D0AD
:101240006868022806D0032807D0216801280AD040
:10125000890504E02168890301E0216889010029EA
:1012600003DB0120F8BD4907F9E7E1688908890037
:101270000143E160FFF7B0FE0746686802280AD024
:10128000032814D001281ED029E0FFF7A5FEC11BBA
:10129000374881423DD8E0680007800F0228F4D12A
:1012A00021E0FFF799FEC11B3148814231D8E06847
:1012B0000007800F0328F4D115E0FFF78DFEC11B56
:1012C0002B48814225D8E0680007800F0128F4D11F
:1012D00009E0FFF781FEC11B2548814219D8E0686B
:1012E0000007800FF5D121480168C907C90FB14235
:1012F00017D901684908490031430160FFF76CFEC6
:10130000074608E005E0FFF767FEC11B1848814269
:1013100001D90320F8BD15480068C007C00FB042CE
:10132000F1D12878400706D5E068072109028843F3
:10133000E9680843E0602878000707D5E0680721DE
:10134000C90288432969C9000843E06000F03AF8FF
:10135000E168094A0906090F515CC840074908605D
:1013600007480068FFF75AFEF8BD00000020024061
:1013700088130000001002404C3300085801002080
:1013800050010020044805490068C968044A49051D
:10139000490F515CC84070475801002000100240BE
:1013A00065330008044805490068C968044A89048F
:1013B000490F515CC840704758010020001002409E
:1013C0006533000870B51A4AD3681A490C201840D2
:1013D0008D0004280CD04E00082810D00C2810D006
:1013E00050680004410F0120C003491C884070BDB3
:1013F0001068C00601D5084670BD284670BD30464D
:1014000070BD98020C4C000F205C1B029C0FD3682F
:10141000641CDB0301D5314603E01268D20600D418
:10142000294601F0BCFB22460023FEF777FE70BD83
:101430000010024000093D005C330008FEB50500C5
:101440007ED0F74CE7680C20E668074001200004D6
:1014500006402878C00747D0082F05D00C2F0AD1A6
:1014600001200004864206D1206880033CD56868CC
:101470000028E5D038E0012069680004814203D1EA
:1014800021680143216011E0052301221B0492041D
:101490009942216802D111432160F1E78143216023
:1014A000216801400091206890432060686800280E
:1014B0000DD0FFF791FD009005E0FFF78DFD00993D
:1014C000401A64287ED820688003F6D50CE0FFF728
:1014D00083FD009005E0FFF77FFD0099401A642826
:1014E000F0D820688003F6D4287880075DD5E868B6
:1014F000810604D5226820210A43226088430923FB
:10150000042F0DD00C2F01D1002E09D000283CD083
:101510002168994301432160FFF75EFD064628E0FC
:101520002168490701D500288AD061681F2212026C
:1015300091432A691202114361602168994300E0D6
:1015400091E101432160FFF73DFFE16809060A0FC1
:10155000B449895CC840B4490860B4480068FFF7E2
:101560005DFD002874D120E0FFF736FD801B0228C6
:10157000A8D820684007F7D560681F210902884372
:1015800029690902084360600FE0206840084000B4
:101590002060FFF721FD064604E0FFF71DFD801BDC
:1015A00002288FD820684007F7D42878C00661D574
:1015B000002F0DD0A86900284BD02068FF210131F1
:1015C000084300E0C6E02060FFF706FD06462DE078
:1015D0002068800502D5A8690028A5D06068072189
:1015E00049038843296A084360606068297F0002D4
:1015F000000A090608436060286A410B0120C00305
:10160000491C8840E16809060A0F8649895CC84080
:101610008549086085480068FFF700FD002817D15C
:1016200028E0FFF7D9FC801B0228A1D8206880059C
:10163000F7D56068072149038843296A0843606039
:101640006068297F0002000A09060843606011E013
:10165000E1E02168FF20013081432160FFF7BCFCFD
:10166000064604E0FFF7B8FC801B022872D8206809
:101670008005F7D428786E4E000724D568690028C5
:10168000306910D0012108433061FFF7A5FC0090BC
:1016900005E0FFF7A1FC0099401A02285AD83069EA
:1016A0008007F6D50FE0400840003061FFF794FC5A
:1016B000009005E0FFF790FC0099401A022849D8F5
:1016C00030698007F6D42878400765D5002002905D
:1016D000A06BC00006D4A06B012109070843A063DA
:1016E0000120029053480168C90511D40168821590
:1016F00011430160FFF770FC009005E0FFF76CFC00
:101700000099401A642825D84A480068C005F5D5D4
:10171000FF20AA680130824203D13169014331615F
:1017200011E001218902002A07D005231B029A42F9
:1017300003D132690A433261EFE732698243326191
:10174000306988433061A86800280FD0FFF744FC57
:10175000009007E05EE0FFF73FFC0099411A364831
:10176000814257D830698005F5D50DE0FFF734FC8C
:10177000009006E0FFF730FC0099411A2E488142A4
:1017800048D830698005F5D40298002804D0A06BB1
:10179000012109078843A063686A002865D00C2FDF
:1017A0004CD0012636060228206805D0B0432060C0
:1017B000FFF712FC05462FE0B0432060FFF70CFC5A
:1017C000074604E0FFF708FCC01B022822D8206867
:1017D0008001F7D4E96AA86AE2680843296BFD230F
:1017E0001B049A4311430843E060206830432060A3
:1017F000FFF7F2FB054604E0FFF7EEFB401B022873
:1018000008D820688001F7D52FE0FFF7E5FB401BE3
:10181000022801D90320FEBD20688001F5D424E010
:10182000001002404C3300085801002050010020F5
:101830004010024000700040881300000128EAD0E8
:10184000E06801210904AA6A014091420BD10F21ED
:101850008904EA6A0140914205D1032189050840C3
:10186000296B884201D00120FEBD0020FEBD000092
:10187000094910B5401E884201D9012010BD074C0E
:1018800060610321081F01F0AFF90020A06107206B
:101890002061002010BD0000FFFFFF0000E000E01D
:1018A0007047704770470000F8B502680446D06979
:1018B00011689668A24B05461D402023002D75D067
:1018C000F707A04DFF0FBC460D402F436DD02546B6
:1018D000C7078035002F06D0CF0504D50127176232
:1018E0002A683A432A60820708D5F20706D027689B
:1018F00002223A622A6804273A432A60420708D53E
:10190000F20706D02668042232622A680226324391
:101910002A6002070AD50A461A406646324305D0B5
:101920002668082232622E6816432E60020508D50A
:101930004A0106D501222668D20232622A681A4379
:101940002A602A68002A39D0800606D5880604D580
:10195000616E002901D0204688472868216889687F
:10196000490602D4282108422DD0204600F04CFF21
:1019700021688868400622D5EFF31080012282F3A7
:1019800010888B68402293438B6080F31088206F0F
:10199000002814D06C498163206FFFF709FA0028F2
:1019A0000CD0206F816B08E000E012E0850610D5B6
:1019B0008D060ED5616EA9E020468847F8BD204609
:1019C000FFF770FFF8BD2046FFF76CFF002028608E
:1019D000F8BD256E012D7CD1C5067AD5CD0678D50A
:1019E0001026166222689068254640064035002879
:1019F00046DA216F086840680004000CE8D02F8B9D
:101A00008742E5D9688308680068800633D4EFF31D
:101A10001080012181F3108811683701B9431160EA
:101A200080F31088EFF31080012181F31088216882
:101A30008A68520852008A6080F31088EFF31080A1
:101A4000012181F3108821688A684027BA438A609F
:101A500080F31088E36700202066EFF310800121F7
:101A600081F3108821680A68B2430A6080F3108805
:101A7000206FFFF77BF9288B698B401A81B231E028
:101A8000288B698B401A81B2688B0028A0D000296E
:101A90009ED0EFF31080012585F310881568FF278D
:101AA0002137BD43156080F31088EFF310800122C9
:101AB00082F31088226895686D086D00956080F348
:101AC0001088E367002020666066EFF31080012233
:101AD00000E00BE082F3108822681368B3431360C0
:101AE00080F310882046FFF7DBFEF8BDC50208D55D
:101AF000750206D50120000510622046FFF7D1FED1
:101B0000F8BD050606D50D0604D5A16E002900D046
:101B100052E7F8BD4006FCD54806FAD52046EFF35B
:101B20001081012484F3108814684025AC431460AC
:101B300081F3108883670021816600F0FEF8F8BD0C
:101B40000F08000020010004F527000810B504006C
:101B500003D0A06F002802D007E0012010BD0021B3
:101B600074200155204600F027F82420A067206843
:101B70000168490849000160204600F075FE01280F
:101B8000ECD0606A002802D0204600F09CFD20685E
:101B900041680922D20291434160206881682A226B
:101BA0009143816020680168012211430160204651
:101BB00000F0EEFD10BD0000F0B587B00446142122
:101BC0006846FEF7E2FA254F2668052000222449E0
:101BD0000123022403250007BE421AD18E6B9F0405
:101BE0003E438E63CE6A1E43CE62C96A0395194096
:101BF00005910C21009106210491019402926946FD
:101C0000FFF70EF9002211461D20FFF741FA1D20B3
:101C10001FE0144FBE421ED18E6B01277F043E434E
:101C20008E63CE6A1E43CE62C96A0395C907C90F87
:101C3000059103214902009104210491019402922B
:101C40006946FFF7EDF8002211461C20FFF720FA45
:101C50001C20FFF711FA07B0F0BD0000004800405B
:101C60000010024000440040FFB50446806F83B07E
:101C700017460D4620285ED1002D0AD0002F08D02F
:101C8000A168C001814207D12069002804D1E8077A
:101C900002D0012007B0F0BD204660300090007DEA
:101CA000012848D0009801210175002080210851A9
:101CB0002120A067FFF790F9264640360190378231
:101CC00077820120A1680003814202D120690028A7
:101CD00005D02F46002500990020087511E0002747
:101CE000F9E700228021204600F0ACFE002815D143
:101CF000002F15D02168387888627F1C708A401EBA
:101D00007082708A019B002806980090E9D1002219
:101D10004021204600F096FE002808D00320B9E7B5
:101D200028882168C005C00D8862AD1CE6E7202028
:101D3000A0670020AEE70220ACE77047FEE7000096
:101D400010B50A480068C16989060AD5426A09487F
:101D5000074B01795A54491C01710121C1700021BE
:101D600041710248FFF7A0FD10BD0000BC0100203A
:101D7000C4030020440100207CB500252E480095B6
:101D800001952C4CC56385602205046042600123E7
:101D9000C560072203618263024620322946137020
:101DA000FF265170C23646628162117301630426B8
:101DB00083614661C3614163FEF7CCFE002801D018
:101DC00072B6FEE71D4800900014019069461A485B
:101DD000FEF776FE002801D072B6FEE718480090A4
:101DE00069461548FEF76CFE002801D072B6FEE782
:101DF000A0680121C9070843A06004E06D1CEDB292
:101E00000120FEF7FBFF2068000501D40A2DF5D361
:101E10000A2D02D10BA000F09BFE20680121C9020F
:101E2000084320600D480E49008B0881A0683043AC
:101E3000A0607CBD00240140600100201000001063
:101E400000000244414443B3F5CABCBBAFD0A3D7A2
:101E5000BCCAA7B0DC210D0A000000006000F81F1A
:101E600000000020F0B587B014216846FEF78DF918
:101E70001F48C26A04210A43C262C26A0A4005922C
:101E8000C16A01252943C162C16A29400591C16A1D
:101E900002263143C162C06A164F3040EC03059000
:101EA0002A4621463846FFF790F805200022E32114
:101EB0000007FFF78AF80094002401950294694610
:101EC00038460394FEF7ACFFE3200090052002940F
:101ED0006946019503940007FEF7A2FF694606488C
:101EE000009602950194FEF79BFF07B0F0BD00003D
:101EF00000100240000800500004005010B50F4CC4
:101F00000D4820604B20C00160600020A060E060B0
:101F10002061A0610C212062616160622046FFF7B0
:101F200015FE002801D072B6FEE720680168202265
:101F30001143016010BD000000480040BC010020BA
:101F400010B50F4C0D4820604B20C0016060002090
:101F5000A060E0602061A061E0610C21206261610D
:101F600060622046FFF7F2FD002801D072B6FEE75E
:101F70002068016820221143016010BD0044004028
:101F800040020020F8B5FBA1FE48FEF709F9FE4D1E
:101F900000287DD0FB4E707C2C287AD1002703E0EE
:101FA0007F1CFFB20A2F05D8F019807C2C28F7D1AE
:101FB0000A2F01D9F5A0C7E0FEA1F248FEF7F0F81C
:101FC000002833D0F048002490300146643907E0FF
:101FD0003219927C0B191A750319641C1A74E4B235
:101FE000BC42F5D32C21001901743322427482744F
:101FF0003222C2743022027541758275C175352353
:102000000376372343768276C2760177342343778B
:102010008177C37720300170017142718171C27183
:102020000D2101720A2141722C7163E0E3A1D548B0
:10203000FEF7B6F800285DD0D34B00242C331846A9
:10204000A0300AE03119897C1A191175021911742E
:10205000DC4A1219641C1174E4B2BC42F2D32C2184
:1020600000190174332242748274C27436230375DA
:10207000417530238375C17535260676467631263F
:102080008676C2760177467781773927C77701E070
:1020900043E05BE02030017022274770C772017374
:1020A00046738173C3730D2707740A274774C548A5
:1020B0000019017442748274C2743622027541752B
:1020C0008375C17535220276427686763422C276D1
:1020D000017746778177C6772030037041702222DE
:1020E000827042738173C373017443740D218174D0
:1020F000C7746C71A4482C212C3000190175312152
:1021000041750D2181750A21C1759F481834E1B2CE
:10211000ADA22C3000F040FA73E0ACA19948FEF774
:102120003FF800286DD09749887C2C2869D1002081
:1021300003E0401CC0B20A2805D80A18D27C2C2A19
:10214000F7D10A2803D9A5A000F002FD59E08E4E70
:1021500000245E3605E00A193319D27C641C5A75D6
:10216000E4B28442F7D395A18648FEF719F8002817
:102170001FD030192C21417531228275C175392348
:1021800003764176222383763521C1760177427723
:10219000332686773B26C6772030017041708270E7
:1021A0003421C17003710D2141710A2181712734DD
:1021B0001EE080A17348FDF7F3FF002821D02C21F9
:1021C0003019417531228275C1753422027641760B
:1021D000222181763522C276372202773022427759
:1021E0008277C1770D21203001700A21417022349D
:1021F0006548E1B274A25E3000F0CEF92878401C48
:10220000287080A15F48FDF7CBFF00287DD05D4E90
:10221000707F412879D13446203460787C49303849
:102220004843A1787B4A5143411820797D22D2004E
:10223000504309186079642250430918A0790A2292
:1022400050430818E1794118734808186861FEF78F
:1022500035FA7249FEF755F80746A861F07F0A2261
:1022600030382178504330380818FEF727FA3946BD
:10227000FDF7B1FF6A49FEF707F82862FEF734FA66
:1022800007466849E861FDF733FF4E4A6B793C3AEF
:10229000D61830302036B07008466349FDF728FF65
:1022A0003030F0702E2030715F493846FDF720FF46
:1022B00008465749FDF71CFF3030707154493846C5
:1022C000FDF716FF08465349FDF712FF3030B07195
:1022D00050493846FDF70CFF08467D21C900FDF73F
:1022E00007FF3030F0717D21C9003846FDF700FF4F
:1022F00008466421FDF7FCFE303030726421384618
:10230000FDF7F6FE08460A2100E026E1FDF7F0FEA3
:10231000303070720A213846FDF7EAFE3031B17272
:10232000394642A000F014FCA07B394930384843BC
:10233000E17B384A51434118607C7D22D2005043F2
:102340000918A07C642250430918E07C0A225043FB
:102350000818217D4118304808186861FEF7AEF969
:102360002E49FDF7CEFF0646A861E07A6422617B24
:10237000303863E02B4D49504C4F4253455256453F
:102380003A000000C4030020000000202B4D4950FB
:102390004C4F42534552564520646174612061633D
:1023A00063657074616E6365206572726F720D0A89
:1023B0000000000033333230000000003333333686
:1023C00000000000080100204F4B00002B4D495039
:1023D0004C444953434F5645523A00002B4D495007
:1023E0004C444953434F5645522064617461206107
:1023F0006363657074616E6365206572726F720DE0
:102400000A0000002B51474E535352443A0000003B
:10241000A086010010270000B0DCF7FF007C124905
:10242000002474498096980040420F006C617469E2
:10243000747564653D25640D0A0000005043091859
:10244000207B0A22504321221201801A0818FEF72D
:1024500035F93146FDF7BFFE4049FDF715FFA8628B
:10246000FEF742F906463E496862FDF741FE3D4AE5
:102470006B793030D4182034E07008463A49FDF7C3
:1024800037FE3030207138493046FDF731FE0846BE
:102490003649FDF72DFE303060712E20A071334992
:1024A0003046FDF725FE08463149FDF721FE303064
:1024B000E0712F493046FDF71BFE08462D49FDF718
:1024C00017FE303020722B493046FDF711FE0846CA
:1024D0007D21C900FDF70CFE303060727D21C900FE
:1024E0003046FDF705FE08466421FDF701FE303059
:1024F000A07264213046FDF7FBFD08460A21FDF776
:10250000F7FD3030E0720A213046FDF7F1FD303141
:102510002173314618A000F01BFB68791AA23230F3
:10252000C1B210483C3800F037F86A790D497D2374
:10253000DB003C3915483232FFF796FB687912A26E
:102540003430C1B2074800F027F86A797D23DB00F8
:1025500004490E483432FFF787FBF8BD0024744964
:1025600000E1F505080100208096980040420F0028
:10257000A0860100102700006C6F6E676974756497
:10258000653D25640D0A00004F4B0000400200200D
:10259000FEE7704770470000F7B507460D46002478
:1025A0001F48FDF711FE01461D48FDF7EEFD7D2693
:1025B000F60033462A4639461A48FFF755FBFF27EF
:1025C000194D2D3704E0641CA4B20120FEF716FC5F
:1025D0002878002801D1BC42F5D3BC4201D10124A6
:1025E0001CE0124C2078401C20700120FEF706FCF5
:1025F00020780A28F6D30E4C0A4833462278084938
:102600008430FFF731FB002028702070022404483A
:102610000299FDF7C5FD002800D000242046FEBD2C
:10262000C4030020BC010020470100204901002014
:102630004801002010B5FEF7D5FC10BD30B599B0AB
:1026400034216846FDF7A1FD14210DA8FDF79DFD7D
:10265000182112A8FDF799FD194801680322D2023A
:102660009143C214891801600220009000241020B8
:1026700009940125049003956846FEF7DFFE0028C3
:1026800001D072B6FEE70F200D9080200F900E95BE
:102690001094002111940DA8FEF7A6FD002801D08A
:1026A00072B6FEE7062012901494159412A8FEF755
:1026B000F3FC002801D072B6FEE719B030BD00006F
:1026C00000700040704710B5818CC90707D00168C1
:1026D0004A6801235B049A43836A1A434A60818CE7
:1026E000890707D501684A6801231B049A43C36A16
:1026F0001A434A60818C490707D501684A6801235B
:102700009B049A43036B1A434A60818C090707D5DF
:1027100001684A680123DB039A43436B1A434A600A
:10272000818CC90607D50268916801231B03994370
:10273000836B19439160818C890607D501688A688B
:1027400001235B039A43C36B1A438A60818C490659
:1027500012D503685A6801210905046C8A43224393
:102760005A60026C8A4207D10268516803235B05F4
:102770009943436C19435160818C090607D5016860
:102780004A680123DB04806C9A4302434A6010BD0F
:10279000F8B50446002680300660FEF71DFC0546AD
:1027A00020680068124F000709D501212B4600223E
:1027B00049052046009700F045F900280DD1206812
:1027C000006840070BD501212B46002289052046D1
:1027D000009700F037F9002801D00320F8BD202031
:1027E000A067E0672666603426750020F8BD00000B
:1027F000FFFFFF0110B5806A0022014640314A8385
:102800004A82FFF74FF810BD10B5EFF31081012297
:1028100082F3108802681368FF242134A3431360F5
:1028200081F31088EFF31081012282F3108802688F
:1028300093685B085B00936081F31088016E012947
:102840000BD1EFF31081012282F310880268136824
:102850001024A343136081F310882021C167002155
:102860000166416610BD0000F8B504460168806845
:102870002369E669184363690025334318436A4AAC
:102880000B686A4E334003430B60206841680323A2
:102890001B039943E368194341602168A069914291
:1028A00001D0236A18438B680B263602B3430343D7
:1028B0008B605F4923685F488B420AD1C0680C2156
:1028C000084027D0042829D0082825D00C2811D169
:1028D0000EE093420ED1C16803208002014019D05E
:1028E00001208002091A19D0091A15D0814201D19C
:1028F000082700E010274F494F484039860093428F
:1029000032D1002F0CD0022F0DD0042F10D0082F61
:102910007FD126E00027EEE70227ECE70427EAE76D
:10292000FEF730FD06E00968C90605D4304603E02D
:10293000FEF748FD002872D06268510051188142AC
:1029400067D81103814264D3010E060250080023A8
:1029500030185941FDF7E2FB03210902411A374AB9
:1029600055E00120C003E7E70122E369D203934267
:102970002BD13B0000F02BF90906090C4D114D4DF0
:102980004D274D00FEF7FEFC09E0FEF70BFD06E0CB
:102990000968C90605D4304603E0FEF713FD002898
:1029A0003DD0616840004A088018FDF7A1FB80B265
:1029B0000146234A103991422BD8511C014000078F
:1029C000400F084329E01046EBE73B0000F0FFF81A
:1029D0000906090C2112212121232100FEF7D2FC36
:1029E0000AE0FEF7DFFC07E00968C90606D43046B6
:1029F00004E00EE0FEF7E6FC002810D061684A080B
:102A00001018FDF775FB80B201460D4A103991424E
:102A100003D9012503E01046F0E72168C8600020D3
:102A20006066A0662846F8BD00480040F369FFEFE5
:102A3000004400404010024000093D00FFFC0F0030
:102A4000EFFF0000FFB581B005461746044660352C
:102A50000A9E55E0701C53D0FEF7BEFA0499401A46
:102A6000B04230D8002E2ED020680168490747D5E3
:102A7000C069C043000543D401202168C002086238
:102A8000EFF31080012181F3108821680B68FF2289
:102A9000A13293430B6080F31088EFF31080012183
:102AA00081F3108821688A68520852008A6080F396
:102AB00010882020A067E0678034206000202875FF
:102AC000032005B0F0BDEFF31080012181F31088E1
:102AD00021680B68FF22A13293430B6080F31088BA
:102AE000EFF31080012181F3108821688A68520871
:102AF00052008A6080F310882020A067E067DDE73D
:102B00002068C1690298884304D00020B842A1D04F
:102B10000020D6E70120F9E710B50A480068C1692E
:102B200089060AD5426A0948074B41785A54491C1C
:102B3000417001210170002181700248FEF7B4FE4E
:102B400010BD000040020020C4020020440100200B
:102B50000FB410B503A9044B044A029800F076F8AC
:102B600010BC08BC04B018479D2D00085C01002073
:102B70002021020C01D010211046020A01D010467B
:102B80000839020901D01046091F820801D01046F9
:102B9000891E420801D0881E7047081A7047F8B590
:102BA000040C8BB2264682B25E430D0C1046370CE5
:102BB0005843360480190021794116466E43370C7C
:102BC00036048019794126466E438919F8BD30B420
:102BD0007446641E2578641CAB4200D21D46635DBA
:102BE0005B00E31830BC18478307FF22DB0E9A40D6
:102BF0008907090E9940002808DB830809489B00D3
:102C00001B18186890430843186070470007000FAE
:102C10000838830804489B001B18D8699043084370
:102C2000D861704700E400E000ED00E002E008C871
:102C3000121F08C1002AFAD170477047002001E036
:102C400001C1121F002AFBD170470000FFB58DB0F3
:102C50000446002506E025280AD0109A0F999047CF
:102C6000641C6D1C20780028F5D1284611B0F0BDF9
:102C700000270121484A009700E00743641C23789D
:102C80000846203B98401042F7D120782E2817D1D3
:102C9000042007436078641C2A280CD10E98641C19
:102CA00002C800910E900BE000990A22514330397E
:102CB0004018641C00902078014630390929F3D966
:102CC00020780028D1D0642808D0692806D075283B
:102CD0001ED0109A0F9990476D1C5BE00A200E9948
:102CE000019001C90E91002802DA40422D2102E034
:102CF000390504D52B216A461172012103E0F90739
:102D000004D02021F7E70BAE0B910DE00021FAE78C
:102D10000A200E99019001C90E91F7E70199FDF77C
:102D2000E7F93031761E31700028F7D103A8801BF7
:102D300020300190780701D5009801E00120009033
:102D40000199884201DD401A00E000200027009030
:102D500006E002A8109AC05D0F9990476D1C7F1C79
:102D60000B988742F5DB04E0109A30200F999047CA
:102D70006D1C0099481E00900029F5DC05E03078B4
:102D8000109A761C0F9990476D1C0199481E01906E
:102D90000029F4DC641C65E7092801000349CA69BD
:102DA0005206FCD5C2B28A6270470000004400405F
:102DB0000025FEF71FF9FFF741FCFFF753F8FEF778
:102DC000DBFFFFF79BF8FFF7BBF801210022C903E7
:102DD000D448FEF7FAF80520012280210007FEF70B
:102DE000F4F8D14F02213846FEF7EAF80028F9D06E
:102DF00005242407012240212046FEF7E6F84B2057
:102E0000C000FDF7FBFF002240212046FEF7DDF861
:102E1000012220212046FEF7D8F83C20FDF7EEFFE6
:102E2000002220212046FEF7D0F8C048FDF7E6FF3B
:102E30007D24E40002E02046FDF7E0FFBCA204216F
:102E4000BCA0FFF7A9FB0028F5D1BCA0FFF780FECE
:102E500002E02046FDF7D2FFB5A20621BDA0FFF794
:102E60009BFB0028F5D1BDA0FFF772FEC14E0020EC
:102E7000F070AFA20821C0A0FFF78EFB002814D18C
:102E8000C04881782B2910D1417A2C2903D0827A2D
:102E90002C2A03D009E0007A303805E0007A0A22B3
:102EA0003038504330380818F0702046FDF7A6FF40
:102EB00002219D48FEF784F8002811D10122D10398
:102EC0009848FEF782F8984F02213846FEF778F8C6
:102ED0000028F9D00520002280210007FEF775F8B0
:102EE000F0780028C5D06328C3D0A248C178A6A036
:102EF000FFF72EFE02E02046FDF780FFA8A20B217F
:102F0000AAA0FFF749FB0028F5D1ABA0FFF720FEF0
:102F100002E02046FDF772FFB3A20B21B5A0FFF738
:102F20003BFB0028F5D1B6A0FFF712FE02E02046D9
:102F3000FDF764FF7EA20D21B7A0FFF72DFB00284F
:102F4000F5D1B9A0FFF704FE03E07D20C000FDF736
:102F500055FFBFA20C21C1A0FFF71EFB0028F4D132
:102F6000C2A0FFF7F5FD72A20F21C7A0FFF714FB67
:102F70006420FDF743FF6EA22021C7A0FFF70CFBE2
:102F80006BA22021CDA0FFF707FB6420FDF736FFE1
:102F900067A21521D2A0FFF7FFFAD74E307801289B
:102FA00014D1D64C2078401C20700120FDF726FF5C
:102FB00020780A28F6D30027D14C37707D23DB0018
:102FC0002278D049D048FEF74FFE2770CF4E307898
:102FD000012817D1CE4C2078401C20700120FDF72D
:102FE0000DFF20780A28F6D30027CA4CC648377050
:102FF0007D23DB00227863498430FEF735FE27709D
:10300000FEF7C0FF484C02212046FDF7D9FF0028FB
:1030100010D10122D1034348FDF7D7FF02212046FA
:10302000FDF7CEFF0028F9D00520002280210007FF
:10303000FDF7CBFF6D1CADB20020FDF7DFFE7D205C
:10304000C0008542A9D90025FDF7D4FC00273E46E3
:10305000484CFDF7CFFC3846E168FDF7BCF8761C1C
:10306000F6B207460A2EF4D3AB49FDF74AF9AB494D
:10307000E060884201DD642027E0A94988420EDA39
:103080000020A0706078401CC0B2607002281DD97A
:103090000520002280210007FDF797FF16E0FDF7CD
:1030A00055FBA04AA04BFDF721FAA04E0022334663
:1030B000FDF724FA9B4A9E4B5242FDF787FA002205
:1030C0003346FDF713FAFDF723FBA07020780228A2
:1030D00000D062E7A07864210746FDF709F80246B0
:1030E00024482679903084193032203408466270A2
:1030F0000A21FCF7FDFF3030A0700A213846FCF7AA
:10310000F7FF30311B48E1702A36F1B208A2903047
:10311000FFF742FA7D23DB00172286A17A48FEF7EB
:10312000A3FD3AE7000800500004005010270000FB
:103130004F4B000041540D0A0000000072656365AA
:103140006976656420636F72726563746C790D0AC9
:1031500000000000415445300D0A000074686520ED
:103160006563686F2069732064697361626C65646C
:103170000D0A00000000002041542B4353510D0A5A
:1031800000000000C40300204E425F5369676E6177
:103190006C5F56616C7565203D2025640D0A00004A
:1031A0002B43455245473A20302C310041542B43A4
:1031B000455245473F0D0A007468652065707320CD
:1031C0006E6574776F726B206973207375636365C6
:1031D000737366756C6C7920726567697374657258
:1031E00065640D0A000000002B43474154543A2007
:1031F0003100000041542B43474154543F0D0A0015
:1032000074686520707320686173206174746163F1
:103210006865640D0A00000041542B51474E53531A
:10322000433D310D0A00000074686520474E53533A
:10323000206F70656E20636F6D6D616E64206861D4
:1032400073206265656E2073656E740D0A00000060
:103250002B51474E5353433A2031000041542B51D8
:10326000474E5353433F0D0A000000007468652029
:10327000474E535320697320706F776572656420E1
:103280006F6E0D0A0000000041542B4D49504C4315
:1032900052454154450D0A0041542B4D49504C4173
:1032A00044444F424A3D302C333332302C312C22AF
:1032B00031222C312C300D0A0000000041542B4DDE
:1032C00049504C4144444F424A3D302C333333360D
:1032D0002C312C2231222C322C300D0A000000001F
:1032E00041542B4D49504C4F50454E3D302C3836B3
:1032F0003430300D0A000000440100204601002057
:1033000045010020C4020020BC010020470100202C
:103310004901002048010020000020413333834050
:1033200000004040666666666666104000005940D0
:103330009999F13F41542B51474E535352443D22EA
:103340004E4D45412F524D43220D0A000000000012
:103350000000000001020304060708090304060830
:103360000C101820300000000001020304000000CF
:103370009033000800000020600100007809000878
:10338000CC33000860010020680700003C2C0008D6
:10339000012C08152341542B4D49504C4F425345A5
:1033A0005256455253503D302C321E444953434FE0
:1033B0003209213359320F1F4E4F54494659600983
:0C33C000843C8132019204522000000085
:04000005080000C12E
:00000001FF
