:020000040800F2
:1000000090070020D5000008051F0008BD1C00084F
:1000100000000000000000000000000000000000E0
:10002000000000000000000000000000091F0008A0
:100030000000000000000000071F0008A91F0008C2
:10004000E7000008E7000008E7000008E7000008F4
:10005000E7000008E7000008E7000008E7000008E4
:1000600000000000E7000008E7000008E7000008C3
:10007000E7000008E700000800000000E7000008B3
:100080000000000000000000000000000000000070
:10009000E700000800000000E7000008E700000893
:1000A00000000000E7000008000000000000000061
:1000B0008D240008C11C00080000000000000000A2
:1000C0000348854600F032FC00480047E52500085B
:1000D000900700200448804704480047FEE7FEE7F9
:1000E000FEE7FEE7FEE7FEE739200008C100000852
:1000F00030B50B46014600202022012409E00D46C0
:10010000D5409D4205D31D469540491B2546954047
:1001100040191546521E002DF1DC30BDF0B51FB45C
:100120000646002082B005464024019100901BE065
:10013000019922460F46304600F034FB049A059B95
:10014000801A994110D310461946224600F01AFB36
:10015000361A8F410197224601200021009F00F0AE
:1001600011FB38184D4100902046641E0028DFDC4A
:10017000019B00982946324607B0F0BDD2B201E09B
:100180000270401C491EFBD270470022F6E710B5F2
:1001900013460A4604461946FFF7F0FF204610BDF5
:1001A00030B505462A460B4610781C78521C5B1C5D
:1001B000002801D0A042F7D0002C03D0002802D0A4
:1001C0006D1CEFE7284630BD421C0178401C002919
:1001D000FBD1801A7047F8B502464A40D40F42005E
:1001E0004B0052085B089A4202D20246084611466A
:1001F0004A0023D0C30D4A00DDB2120EAD1A202DE5
:1002000035DA49020126490AF6058A19002C00D080
:10021000524220214F1B1146B9402A411018C20DED
:100220009A4221D0002C17D0012D08DCDA05801A63
:10023000D20F8019D207DBB200F0E0FAF8BDDA0580
:10024000801A012340001B06C01880185A428018EB
:10025000CA0F1043490007E04908C2071143DA05F5
:10026000801A80194008801800F0C0FAF8BD6100BB
:100270000122511A001BF7E70122D2075140AAE7D9
:100280000122D2075040A6E7024670B54A40D30F7C
:10029000DB0740002DD04A002AD0010E140E0002C8
:1002A00012020919400A520A8418E501044654430F
:1002B000000A120A2E045043A4194219200CC54307
:1002C000AA18120C0125AD03521C521912047F39D1
:1002D000240400D0521C104301D44000491EC2B275
:1002E0000C06C0092018401C4008802A02D003E0F8
:1002F000002070BD40084000002900DA00201843AB
:1003000070BD70B502464A40D50F40004A00ED0767
:1003100040085208002814D0002A12D0C40DD30D72
:1003200041020120C0055202490A520AE41A091882
:1003300012187D34914201D3641C00E04900002C66
:1003400001DA002070BD0023914201D3891A0343D2
:10035000400849000028F7D100290AD0914202D173
:100360000121C90705E0914201D2012101E00121EB
:10037000C943E005C018401900F038FA70BD4200CA
:1003800005D04200120E52428A4201DB0020704723
:10039000C905081870470000F0B5074608465840E0
:1003A00087B0C00F049048000E4659004008490825
:1003B000BC1A884105D2384631461E4617460B46C0
:1003C00002465800400810434CD0300D03904005C1
:1003D0005900400D490D0590401A0290402872DAEC
:1003E00018030121000B09050843019004980092AD
:1003F000002805D0019952420020884100920190C6
:10040000029840210A1A0199009800F0BBF90546AC
:100410000C466B4607CB00F0D6F9C0197141039A20
:100420000E0D0023D71756401A467A40164344D083
:10043000049A002A2DD0029A012A039A15DC12058B
:10044000C01A914101263605001C7141D20F059E4C
:10045000D2070093019202962A46234600F014FA2E
:1004600007B0F0BD38463146FAE71605224A0F4676
:10047000B218C01AB74101210905001C4F410018EC
:100480007F41114618187941E20F10436D196441FC
:1004900013E0E2076D0815436408C2071443039A8A
:1004A00001261205C01A91413605001C7141CE0784
:1004B000400830434908C01851412A46234600F0FD
:1004C000D6F9CDE7FFE7049801224000C117121AC0
:1004D00000238B4104983146C417381AA141EEE736
:1004E00030B40124E407634030BC55E730B4012444
:1004F000E407614030BC4FE70000E0FFF0B51FB4F7
:1005000088B00B990998002448400999C00F490008
:1005100049080991C0070B990090490049080B91BF
:1005200009990898A64608431CD00B990A980843D5
:1005300018D0099801244000420D4800410D099847
:1005400024050003000B204309900B980003000BC7
:1005500020430B9050181C4940180022019014466B
:10056000104605E0002001460DB0F0BD032801DA79
:10057000034600E003239C46C11A0AAE0AE05F006E
:1005800008ADED5B4F00F75B7D430027AA187C4167
:10059000491C5B1E6145F2DD410004AB5A52210447
:1005A000120C0A43240C401C0828DFDB019802903F
:1005B0000099704601910090059B049A079906984E
:1005C00000F062F9D0E700000DFCFFFFF0B50C462B
:1005D0005C4085B0E40FE40703944C0000266408F7
:1005E00059009446490802460296224321D06246A9
:1005F0000A431ED06200570D4A000E032303550D17
:10060000012402462C492405781B1B0B360B40188D
:1006100023432643614600901C46501AB44103D33D
:100620000098401C009002E0921800985B4100285E
:1006300003DA0020014605B0F0BD002001210905C4
:100640000746864611E064461D46141BB54106D395
:100650006546521BB341744607430C43A646CD077B
:1006600040084908284392185B4105460D43EAD1EA
:100670001046184313D06046194650407140084355
:1006800006D06046101AB34106D20122002306E0CC
:1006900000220123DB0702E00122D243531000981D
:1006A00074460105381C6141029C039D0019694193
:1006B00000F0DDF8BFE70000FD03000010B50022E8
:1006C0009623114600F09AF810BD00000EB50549BA
:1006D0000291002100910A460B46019100F0D4F8E6
:1006E00003B000BD330400004A0009030123090BD5
:1006F0001B051943094B10B5520D9A4201DA00202F
:1007000010BD064B34339A4203DC9A1A00F04AF8C3
:1007100010BD03495118884010BD0000FF030000C0
:10072000CDFBFFFFC20FD207400040080BD0C10D28
:100730000723DB01C91840020905400A1143C2081A
:10074000400711437047002001467047CB0FDB077D
:10075000490010B5490802460A4307D00A0D07248C
:100760000903E401090B121B002A01DC002010BD63
:10077000C900440F0C43C100E018D205801800F0F6
:1007800035F810BD10B5202A04DB0146203A91400F
:10079000002010BD914020239C1A0346E3401943DA
:1007A000904010BD10B5202A04DB0846203AD04006
:1007B000002110BD0B46D340D0402024A21A914006
:1007C0000843194610BD10B5202A06DBCB17084692
:1007D000203A1041C1170B4306E00B461341D040AD
:1007E0002024A21A91400843194610BD002904DABA
:1007F000401C490001D140084000704770B40024FB
:10080000050C05D11024000402D1002921D01124A7
:10081000050E01D100020834050F01D10001241D8D
:10082000850F01D18000A41C002801DB4000641C5E
:10083000002908D020252E1B0D46F540A14000D0F0
:1008400001212943084301061B1B000ADB1D02D5B9
:10085000002070BC7047DB05181880180029F8DAF2
:10086000401C4900F5D170BC40084000704710B5ED
:10087000002B08DA0024401C614192185B411A43A6
:1008800001D14008400010BDF0B51FB482B005464C
:100890000C0003D0084601F01FFE02E001F01CFE30
:1008A00020300246009021462846FFF76BFF049B4C
:1008B000059A04460F4618431143084314D01846BE
:1008C00010431BD0009840210A1A18460599FFF7DB
:1008D00069FF05460E46009A05990498FFF752FFF6
:1008E000084305D0012004E02046394607B0F0BD9A
:1008F0000020C11705430E432C43374300990E983F
:100900006305401A7905E40A00220C43FD0A0A3007
:1009100002D500200146E9E70105101969410C9C48
:100920000D9D00196941FFF7A2FFDFE7064C012585
:10093000064E05E0E36807CC2B430C3C9847103487
:10094000B442F7D3FFF7C0FB302800085028000856
:1009500038B50446064805490068FFF7C9FB6043FF
:1009600000E0401E00900028FBD138BD40420F003F
:1009700024000020F8B50024244E04E0641CE4B2F6
:10098000012000F0FBF93068400701D40A2CF5D3B0
:100990000A2C02D11EA001F095FD1C4F403738688B
:1009A000204C0025608004E06D1CEDB2012000F0B9
:1009B000E5F93068400701D40A2DF5D30A2D02D19C
:1009C00019A001F07FFD386880B2E080FFF77EFE5D
:1009D00005460E46A088FFF779FE0022174BFFF769
:1009E0008DFD2A463346FFF7F1FDFFF7AFFE0546C2
:1009F000E0606088FFF762FE2946FFF745FC0A21A8
:100A0000C943FFF7BCFCA060F8BD00000024014012
:100A1000CDA8B5C034D7AABBBBCAA7B0DCA3A10D73
:100A20000A00000000000020CDA8B5C03137D7AAC9
:100A3000BBBBCAA7B0DCA3A10D0A000000000840A0
:100A4000F8B506460D464036317C01290DD001210E
:100A5000317401688A68520709D5416D202211431B
:100A60004165002030740120F8BD0220F8BD174B0D
:100A70006A68D80547109A42154C8A6A2B6812D0CA
:100A80005B035B0B1A438A622968490305D5A16899
:100A90000143A1600A20FFF75BFF2868800312D59D
:100AA000A06838430EE05B035B0B9A438A622968B7
:100AB000490302D5A1688143A1602868800302D55B
:100AC000A068B843A06000203074F8BD0110000099
:100AD0000027014070B5040006D0606D2646002551
:100AE0004036002802D006E0012070BDA5653574AF
:100AF000204600F0D3F8606DC00603D421688868F2
:100B0000400705D5606D1021084360653574EBE73B
:100B1000606DFF22013290430222104360658868B5
:100B20008207920F5B48012A02D10A68D2072BD1B3
:100B3000032362689B079A4205D05B429A4202D027
:100B40005B009A4209D10A69920092080A61216801
:100B50000A6963681A430A610CE00A699200920804
:100B60000A6181680F229204914381608168626802
:100B7000114381602168CA6818239A43CA602168BA
:100B8000CA68A3681A43CA60816801225206914369
:100B900081608168A28E520611438160206881685D
:100BA000C90004D4816801221207114381602068C2
:100BB000C168394A1140C1602069E168022825D026
:100BC00000200143204620300278037B52035B0063
:100BD0001A431143226B1143A26992031143E26944
:100BE000D20311432268D3681943D160616A0A466F
:100BF000FF3AC23A05D0A26A11432268D36819436A
:100C0000D16042780121012A02D00BE00420D8E70C
:100C10000078002823D0606D202210436065A06D0D
:100C20000843A065E06B012820681FD00169C9074F
:100C300003D0016949084900016120684169C90878
:100C4000C900416120684169A26B11434161A565FA
:100C5000606D80088000401C6065002070BD2068C9
:100C6000C26801231B041A43C260DBE70269FF2349
:100C70009B009A43026120680269236CA66C1A43A8
:100C8000636C33431A430261206802690A430261BC
:100C9000D3E70000002701401902FEFF10B586B01F
:100CA000044614216846FFF770FA0E49206888420E
:100CB00016D10D48416B421511434163C16A0122AF
:100CC0001143C162C06A694610400590102000902F
:100CD00003200190002002900520000700F060F83A
:100CE00006B010BD002401400010024030B501469E
:100CF00020314A790023022A04D00422C2630B71F6
:100D0000012030BD026814680E25AC4314600268EF
:100D10001468640864001460446C1C2214400122AE
:100D20001546006CA54045604A7118460B7130BDF0
:100D300070B50024014620314A79022A03D00421EB
:100D4000C163012418E0026813680E25AB431360E9
:100D5000026813685B085B001360436C1C2213403D
:100D6000012215469D40036C5D604A7100220A71A4
:100D7000816B002900D08847204670BD70B50446BD
:100D800000F0EAF80546601C02D0044800782418F8
:100D900000F0E2F8401BA042FAD370BD180000201A
:100DA000F8B5002303240125B8E032462E469E40C4
:100DB000B446324079D00E79B607B60F012E01D075
:100DC000022E17D186682746B6465E00B7400096C9
:100DD0007646BE43B646CF68009EB7407646374358
:100DE000876046686746BE430F79FF06FF0F9F4046
:100DF000374347600E79F643B6070ED0C6682746DC
:100E0000B4465E00B646B7406646BE43B4468F68F9
:100E10007646B74066463743C7600E79B607B60FC9
:100E2000022E14D1DE08B60036180096366A5F0727
:100E3000B446FE0E0F27B646B7406646BE43B446DC
:100E40000F697646B74066463743009E37620668AC
:100E50002746B4465E00B646B7406646BE430F79A5
:100E6000B446BF07BF0F7646B740664637430760B4
:100E70004E68B603B60F50D02B4F7E6B2E437E6369
:100E80009F082A4EBF00BE190096B6680F27B446C9
:100E90009E07360FB646B7406646BE4305273F0756
:100EA000B446B84202D1002710E036E0204FB842E5
:100EB00001D101270AE01F4FB84201D1022705E006
:100EC0001D4FB84201D1052700E006277646B740FE
:100ED00066463743009EB760184E36684F689643A3
:100EE000FF0300D51643154F3E607E684F6896435A
:100EF000BF0300D51643114F7E60BE684F6896430E
:100F0000FF0200D516430D4FBE60FE684F68964342
:100F1000BF0200D51643094AD6605B1C0A68164614
:100F2000DA4000D041E7F8BD001002400000014067
:100F30000004005000080050001C00500004014054
:100F40000069084000D001207047002A01D081616B
:100F50007047816270470000014880687047000058
:100F60001800002002488168027889188160704763
:100F70001800002010B508480024016840221143E1
:100F80000160032000F00AF8002801D0012401E0EC
:100F900000F026F8204610BD0020024070B504463F
:100FA0000D4D7D202978C000FFF7A2F801460B48BF
:100FB0000068FFF79DF800F01BFC002809D1042C05
:100FC00007D200222146401E00F022F800206C606B
:100FD00070BD012070BD000018000020240000201A
:100FE0000448416B012211434163816B02041143A8
:100FF0008163704700100240002805DBC106C90E5E
:1010000001208840014908607047000000E100E0CD
:1010100010B501F09DFA10BDF8B504460078002720
:101020004E4D800671D54D4E403EB06BC00004D48D
:10103000B06BA9050843B063012749480168C90599
:1010400011D40168821511430160FFF785FF0090FC
:1010500005E0FFF781FF0099401A642837D840481F
:101060000068C005F5D532680321090560680A40AB
:101070000140914208D08103890F032904D13168CE
:10108000890301D50120F8BD2A69032109040A401A
:1010900022D0084090421FD0207880061CD52869B5
:1010A0002A6988430121C9040A432A612A698A43BB
:1010B0002A612861C0050FD5FFF74EFF009008E0B8
:1010C000FFF74AFF0099411A2648814201D90320BF
:1010D000F8BD28698005F3D561688803800F03286F
:1010E00005D132680005824301400A433260286915
:1010F000032261681204114008432861002F04D0C4
:10110000B16B012000078143B1632078800705D5CA
:10111000E8680C218843A1680843E860207840070C
:1011200006D5E868032189028843E1680843E8603E
:101130002078000706D5E868032109038843216960
:101140000843E8602078000606D5E8680321890492
:10115000884361690843E8600020F8BD4010024000
:101160000070004088130000F8B50E46050038D026
:101170005E480068C007C00FB04214D25B4C2068C4
:101180004008400030432060FFF7E6FE074605E0D8
:10119000FFF7E2FEC11B564881427AD82068C0079B
:1011A000C00FB042F4D12878524C800705D5E068D2
:1011B000F0218843A9680843E0602878C00752D02E
:1011C0006868022806D0032807D0216801280AD0C1
:1011D000890504E02168890301E02168890100296B
:1011E00003DB0120F8BD4907F9E7E16889088900B8
:1011F0000143E160FFF7B0FE0746686802280AD0A5
:10120000032814D001281ED029E0FFF7A5FEC11B3A
:10121000374881423DD8E0680007800F0228F4D1AA
:1012200021E0FFF799FEC11B3148814231D8E068C7
:101230000007800F0328F4D115E0FFF78DFEC11BD6
:101240002B48814225D8E0680007800F0128F4D19F
:1012500009E0FFF781FEC11B2548814219D8E068EB
:101260000007800FF5D121480168C907C90FB142B5
:1012700017D901684908490031430160FFF76CFE46
:10128000074608E005E0FFF767FEC11B18488142EA
:1012900001D90320F8BD15480068C007C00FB0424F
:1012A000F1D12878400706D5E06807210902884374
:1012B000E9680843E0602878000707D5E06807215F
:1012C000C90288432969C9000843E06000F03AF880
:1012D000E168094A0906090F515CC84007490860DE
:1012E00007480068FFF75AFEF8BD000000200240E2
:1012F00088130000001002400C2800082400002081
:101300001C000020044805490068C968044A4905D2
:10131000490F515CC8407047240000200010024073
:1013200025280008044805490068C968044A89045A
:10133000490F515CC8407047240000200010024053
:101340002528000870B51A4AD3681A490C2018409D
:101350008D0004280CD04E00082810D00C2810D086
:1013600050680004410F0120C003491C884070BD33
:101370001068C00601D5084670BD284670BD3046CD
:1013800070BD98020C4C000F205C1B029C0FD368B0
:10139000641CDB0301D5314603E01268D20600D499
:1013A000294601F0B0F822460023FEF7B7FE70BDD3
:1013B0000010024000093D001C280008FEB5050091
:1013C0007ED0F74CE7680C20E66807400120000457
:1013D00006402878C00747D0082F05D00C2F0AD127
:1013E00001200004864206D1206880033CD568684D
:1013F0000028E5D038E0012069680004814203D16B
:1014000021680143216011E0052301221B0492049D
:101410009942216802D111432160F1E781432160A3
:10142000216801400091206890432060686800288E
:101430000DD0FFF791FD009005E0FFF78DFD0099BD
:10144000401A64287ED820688003F6D50CE0FFF7A8
:1014500083FD009005E0FFF77FFD0099401A6428A6
:10146000F0D820688003F6D4287880075DD5E86836
:10147000810604D5226820210A432260884309237B
:10148000042F0DD00C2F01D1002E09D000283CD004
:101490002168994301432160FFF75EFD064628E07D
:1014A0002168490701D500288AD061681F221202ED
:1014B00091432A691202114361602168994300E057
:1014C00091E101432160FFF73DFFE16809060A0F42
:1014D000B449895CC840B4490860B4480068FFF763
:1014E0005DFD002874D120E0FFF736FD801B022847
:1014F000A8D820684007F7D560681F2109028843F3
:1015000029690902084360600FE020684008400034
:101510002060FFF721FD064604E0FFF71DFD801B5C
:1015200002288FD820684007F7D42878C00661D5F4
:10153000002F0DD0A86900284BD02068FF21013171
:10154000084300E0C6E02060FFF706FD06462DE0F8
:101550002068800502D5A8690028A5D06068072109
:1015600049038843296A084360606068297F000254
:10157000000A090608436060286A410B0120C00385
:10158000491C8840E16809060A0F8649895CC84001
:101590008549086085480068FFF700FD002817D1DD
:1015A00028E0FFF7D9FC801B0228A1D8206880051D
:1015B000F7D56068072149038843296A08436060BA
:1015C0006068297F0002000A09060843606011E094
:1015D000E1E02168FF20013081432160FFF7BCFC7E
:1015E000064604E0FFF7B8FC801B022872D820688A
:1015F0008005F7D428786E4E000724D56869002846
:10160000306910D0012108433061FFF7A5FC00903C
:1016100005E0FFF7A1FC0099401A02285AD830696A
:101620008007F6D50FE0400840003061FFF794FCDA
:10163000009005E0FFF790FC0099401A022849D875
:1016400030698007F6D42878400765D500200290DD
:10165000A06BC00006D4A06B012109070843A0635A
:101660000120029053480168C90511D40168821510
:1016700011430160FFF770FC009005E0FFF76CFC80
:101680000099401A642825D84A480068C005F5D555
:10169000FF20AA680130824203D1316901433161E0
:1016A00011E001218902002A07D005231B029A427A
:1016B00003D132690A433261EFE732698243326112
:1016C000306988433061A86800280FD0FFF744FCD8
:1016D000009007E05EE0FFF73FFC0099411A3648B2
:1016E000814257D830698005F5D50DE0FFF734FC0D
:1016F000009006E0FFF730FC0099411A2E48814225
:1017000048D830698005F5D40298002804D0A06B31
:10171000012109078843A063686A002865D00C2F5F
:101720004CD0012636060228206805D0B043206040
:10173000FFF712FC05462FE0B0432060FFF70CFCDA
:10174000074604E0FFF708FCC01B022822D82068E7
:101750008001F7D4E96AA86AE2680843296BFD238F
:101760001B049A4311430843E06020683043206023
:10177000FFF7F2FB054604E0FFF7EEFB401B0228F3
:1017800008D820688001F7D52FE0FFF7E5FB401B64
:10179000022801D90320FEBD20688001F5D424E091
:1017A000001002400C280008240000201C0000202B
:1017B0004010024000700040881300000128EAD069
:1017C000E06801210904AA6A014091420BD10F216E
:1017D0008904EA6A0140914205D103218905084044
:1017E000296B884201D00120FEBD0020FEBD000013
:1017F000094910B5401E884201D9012010BD074C8F
:1018000060610321081F00F0A3FE0020A0610720F3
:101810002061002010BD0000FFFFFF0000E000E09D
:101820007047704770470000F8B502680446D069F9
:1018300011689668A24B05461D402023002D75D0E7
:10184000F707A04DFF0FBC460D402F436DD0254636
:10185000C7078035002F06D0CF0504D501271762B2
:101860002A683A432A60820708D5F20706D027681B
:1018700002223A622A6804273A432A60420708D5BE
:10188000F20706D02668042232622A680226324312
:101890002A6002070AD50A461A406646324305D036
:1018A0002668082232622E6816432E60020508D58B
:1018B0004A0106D501222668D20232622A681A43FA
:1018C0002A602A68002A39D0800606D5880604D501
:1018D000616E002901D02046884728682168896800
:1018E000490602D4282108422DD0204600F046FCAB
:1018F00021688868400622D5EFF31080012282F328
:1019000010888B68402293438B6080F31088206F8F
:10191000002814D06C498163206FFFF709FA002872
:101920000CD0206F816B08E000E012E0850610D536
:101930008D060ED5616EA9E020468847F8BD204689
:10194000FFF770FFF8BD2046FFF76CFF002028600E
:10195000F8BD256E012D7CD1C5067AD5CD0678D58A
:1019600010261662226890682546400640350028F9
:1019700046DA216F086840680004000CE8D02F8B1D
:101980008742E5D9688308680068800633D4EFF39E
:101990001080012181F3108811683701B94311606B
:1019A00080F31088EFF31080012181F31088216803
:1019B0008A68520852008A6080F31088EFF3108022
:1019C000012181F3108821688A684027BA438A6020
:1019D00080F31088E36700202066EFF31080012178
:1019E00081F3108821680A68B2430A6080F3108886
:1019F000206FFFF77BF9288B698B401A81B231E0A9
:101A0000288B698B401A81B2688B0028A0D00029EE
:101A10009ED0EFF31080012585F310881568FF270D
:101A20002137BD43156080F31088EFF31080012249
:101A300082F31088226895686D086D00956080F3C8
:101A40001088E367002020666066EFF310800122B3
:101A500000E00BE082F3108822681368B343136040
:101A600080F310882046FFF7DBFEF8BDC50208D5DD
:101A7000750206D50120000510622046FFF7D1FE51
:101A8000F8BD050606D50D0604D5A16E002900D0C7
:101A900052E7F8BD4006FCD54806FAD52046EFF3DC
:101AA0001081012484F3108814684025AC4314602D
:101AB00081F3108883670021816600F0FEF8F8BD8D
:101AC0000F080000200100046921000810B504007F
:101AD00003D0A06F002802D007E0012010BD002134
:101AE00074200155204600F027F82420A0672068C4
:101AF0000168490849000160204600F06FFB012899
:101B0000ECD0606A002802D0204600F096FA2068E7
:101B100041680922D20291434160206881682A22EB
:101B200091438160206801680122114301602046D1
:101B300000F0E8FA10BD0000F0B587B004461421AB
:101B40006846FEF722FB254F26680520002224491F
:101B50000123022403250007BE421AD18E6B9F0485
:101B60003E438E63CE6A1E43CE62C96A0395194016
:101B700005910C210091062104910194029269467D
:101B8000FFF70EF9002211461D20FFF741FA1D2034
:101B90001FE0144FBE421ED18E6B01277F043E43CF
:101BA0008E63CE6A1E43CE62C96A0395C907C90F08
:101BB00005910321490200910421049101940292AC
:101BC0006946FFF7EDF8002211461C20FFF720FAC6
:101BD0001C20FFF711FA07B0F0BD000000480040DC
:101BE0000010024000440040FFB50446806F83B0FF
:101BF00017460D4620285ED1002D0AD0002F08D0B0
:101C0000A168C001814207D12069002804D1E807FA
:101C100002D0012007B0F0BD204660300090007D6A
:101C2000012848D000980121017500208021085129
:101C30002120A067FFF790F92646403601903782B1
:101C400077820120A1680003814202D12069002827
:101C500005D02F46002500990020087511E00027C7
:101C6000F9E700228021204600F0A6FB002815D1CC
:101C7000002F15D02168387888627F1C708A401E3A
:101C80007082708A019B002806980090E9D100229A
:101C90004021204600F090FB002808D00320B9E73F
:101CA00028882168C005C00D8862AD1CE6E72020A9
:101CB000A0670020AEE70220ACE77047FEE7000017
:101CC00010B50A480068C16989060AD5426A094800
:101CD000074B01795A54491C01710121C17000213F
:101CE00041710248FFF7A0FD10BD000088000020F0
:101CF00090020020100000207CB500252E480095A1
:101D000001952C4CC5638560220504604260012367
:101D1000C5600722036182630246203229461370A0
:101D2000FF265170C2364662816211730163042638
:101D300083614661C3614163FEF7CCFE002801D098
:101D400072B6FEE71D4800900014019069461A48DB
:101D5000FEF776FE002801D072B6FEE71848009024
:101D600069461548FEF76CFE002801D072B6FEE702
:101D7000A0680121C9070843A06004E06D1CEDB212
:101D80000120FEF7FBFF2068000501D40A2DF5D3E2
:101D90000A2D02D10BA000F095FB20680121C90299
:101DA000084320600D480E49008B8880A0683043AE
:101DB000A0607CBD002401402C0000201000001019
:101DC00000000244414443B3F5CABCBBAFD0A3D723
:101DD000BCCAA7B0DC210D0A000000006000F81F9B
:101DE00000000020F0B587B014216846FEF7CDF959
:101DF0001F48C26A04210A43C262C26A0A400592AD
:101E0000C16A01252943C162C16A29400591C16A9D
:101E100002263143C162C06A164F3040EC03059080
:101E20002A4621463846FFF790F805200022E32194
:101E30000007FFF78AF80094002401950294694690
:101E400038460394FEF7ACFFE3200090052002948F
:101E50006946019503940007FEF7A2FF694606480C
:101E6000009602950194FEF79BFF07B0F0BD0000BD
:101E700000100240000800500004005010B50F4C44
:101E80000D4820604B20C00160600020A060E06031
:101E90002061A0610C212062616160622046FFF731
:101EA00015FE002801D072B6FEE7206801682022E6
:101EB0001143016010BD0000004800408800002070
:101EC00010B50F4C0D4820604B20C0016060002011
:101ED000A060E0602061A061E0610C21206261618E
:101EE00060622046FFF7F2FD002801D072B6FEE7DF
:101EF0002068016820221143016010BD00440040A9
:101F00000C010020FEE7704770470000F7B5074658
:101F10000D4600241F48FEF757F901461D48FEF7FD
:101F200034F97D26F60033462A4639461A48FFF72B
:101F30005BFEFF27194D2D3704E0641CA4B201207D
:101F4000FEF71CFF2878002801D1BC42F5D3BC4223
:101F500001D101241CE0124C2078401C207001208B
:101F6000FEF70CFF20780A28F6D30E4C0A483346B9
:101F7000227808498430FFF737FE0020287020704F
:101F8000022404480299FEF70BF9002800D000242F
:101F90002046FEBD90020020880000201300002093
:101FA000150000201400002010B5FEF7DBFF10BD67
:101FB00030B599B034216846FEF7E7F814210DA832
:101FC000FEF7E3F8182112A8FEF7DFF819480168B8
:101FD0000322D2029143C2148918016002200090AA
:101FE0000024102009940125049003956846FFF70A
:101FF000E5F9002801D072B6FEE70F200D90802091
:102000000F900E951094002111940DA8FFF7ACF8D5
:10201000002801D072B6FEE70620129014941594A1
:1020200012A8FEF7F9FF002801D072B6FEE719B03A
:1020300030BD000000700040704710B5818CC907AA
:1020400007D001684A6801235B049A43836A1A43F4
:102050004A60818C890707D501684A6801231B04FF
:102060009A43C36A1A434A60818C490707D50168BD
:102070004A6801239B049A43036B1A434A60818C8C
:10208000090707D501684A680123DB039A43436BBC
:102090001A434A60818CC90607D5026891680123FA
:1020A0001B039943836B19439160818C890607D583
:1020B00001688A6801235B039A43C36B1A438A60F1
:1020C000818C490612D503685A6801210905046C00
:1020D0008A4322435A60026C8A4207D102685168DF
:1020E00003235B059943436C19435160818C0906B6
:1020F00007D501684A680123DB04806C9A430243D8
:102100004A6010BDF8B50446002680300660FEF730
:1021100023FF054620680068124F000709D50121FA
:102120002B46002249052046009700F045F900287B
:102130000DD12068006840070BD501212B460022F5
:1021400089052046009700F037F9002801D00320C8
:10215000F8BD2020A067E067266660342675002061
:10216000F8BD0000FFFFFF0110B5806A00220146A4
:1021700040314A834A82FFF755FB10BD10B5EFF39B
:102180001081012282F3108802681368FF24213431
:10219000A343136081F31088EFF31081012282F3CF
:1021A0001088026893685B085B00936081F3108875
:1021B000016E01290BD1EFF31081012282F3108807
:1021C000026813681024A343136081F31088202150
:1021D000C16700210166416610BD0000F8B50446E4
:1021E000016880682369E669184363690025334301
:1021F00018436A4A0B686A4E334003430B602068F9
:10220000416803231B039943E36819434160216834
:10221000A069914201D0236A18438B680B263602CD
:10222000B34303438B605F4923685F488B420AD105
:10223000C0680C21084027D0042829D0082825D0C0
:102240000C2811D10EE093420ED1C1680320800208
:10225000014019D001208002091A19D0091A15D09D
:10226000814201D1082700E010274F494F484039EB
:102270008600934232D1002F0CD0022F0DD0042FB4
:1022800010D0082F7FD126E00027EEE70227ECE7E9
:102290000427EAE7FFF736F806E00968C90605D41F
:1022A000304603E0FFF74EF8002872D06268510014
:1022B0005118814267D81103814264D3010E06028E
:1022C0005008002330185941FDF728FF0321090267
:1022D000411A374A55E00120C003E7E70122E369CC
:1022E000D20393422BD13B0000F025F90906090CDB
:1022F0004D114D4D4D274D00FFF704F809E0FFF754
:1023000011F806E00968C90605D4304603E0FFF776
:1023100019F800283DD0616840004A088018FDF790
:10232000E7FE80B20146234A103991422BD8511C56
:1023300001400007400F084329E01046EBE73B004F
:1023400000F0F9F80906090C2112212121232100AE
:10235000FEF7D8FF0AE0FEF7E5FF07E00968C906C7
:1023600006D4304604E00EE0FEF7ECFF002810D063
:1023700061684A081018FDF7BBFE80B201460D4A9D
:102380001039914203D9012503E01046F0E7216896
:10239000C86000206066A0662846F8BD004800407E
:1023A000F369FFEF004400404010024000093D0087
:1023B000FFFC0F00EFFF0000FFB581B00546174698
:1023C000044660350A9E55E0701C53D0FEF7C4FDEC
:1023D0000499401AB04230D8002E2ED020680168EF
:1023E000490747D5C069C043000543D4012021688F
:1023F000C0020862EFF31080012181F31088216888
:102400000B68FF22A13293430B6080F31088EFF337
:102410001080012181F3108821688A6852085200D7
:102420008A6080F310882020A067E06780342060F5
:1024300000202875032005B0F0BDEFF310800121C6
:1024400081F3108821680B68FF22A13293430B604F
:1024500080F31088EFF31080012181F31088216848
:102460008A68520852008A6080F310882020A06792
:10247000E067DDE72068C1690298884304D0002046
:10248000B842A1D00020D6E70120F9E710B50A48EC
:102490000068C16989060AD5426A0948074B417834
:1024A0005A54491C41700121017000218170024879
:1024B000FFF7BAF910BD00000C01002090010020C8
:1024C0001000002010B5024A024900F072F810BD59
:1024D000D1250008280000202021020C01D0102165
:1024E0001046020A01D010460839020901D01046F0
:1024F000091F820801D01046891E420801D0881E9B
:102500007047081A7047F8B5040C8BB2264682B2A1
:102510005E430D0C1046370C5843360480190021D9
:10252000794116466E43370C3604801979412646A8
:102530006E438919F8BD30B47446641E2578641C56
:10254000AB4200D21D46635D5B00E31830BC184708
:102550008307FF22DB0E9A408907090E9940002865
:1025600008DB830809489B001B1818689043084340
:10257000186070470007000F0838830804489B0064
:102580001B18D86990430843D861704700E400E005
:1025900000ED00E002E008C8121F08C1002AFAD1CD
:1025A00070477047002001E001C1121F002AFBD1D3
:1025B0007047F8B516460F460446002503E0394635
:1025C000B047641C6D1C20780028F8D12846F8BD5F
:1025D0000349CA695206FCD5C2B28A62704700003C
:1025E000004400400024FEF7C5FCFFF7E1FCFFF7C4
:1025F000F9FBFFF781FBFFF741FCFFF761FC0121CD
:102600000022C9035B48FEF7A0FC05252D07012227
:1026100080212846FEF799FC012240212846FEF73A
:1026200094FC7D200001FEF7A9FB002240212846F2
:10263000FEF78BFC5048FEF7A1FB50A2042150A0EE
:10264000FFF764FC00280CD04FA0FFF73BFF4BA224
:10265000082153A0FFF75AFC544E3078012802D0CD
:1026600016E053A0F1E7584D2878401C287001204F
:10267000FEF784FB28780A28F6D300253570534EE0
:102680007D23DB00327852495248FFF7ADFA3570AE
:10269000514E3078012815D1504D2878401C2870B3
:1026A0000120FEF76BFB28780A28F6D30025357049
:1026B0004B4E48487D23DB0032784A498430FFF78F
:1026C00093FA3570484D02212846FEF739FC002860
:1026D00010D10122D1032748FEF737FC02212846FA
:1026E000FEF72EFC0028F9D00520002280210007EB
:1026F000FEF72BFC641CA4B20120FEF73FFB7D20FB
:10270000C0008442A8D90024FEF734F900273E46D1
:10271000364DFEF72FF93846A968FDF75CFD761CAB
:10272000F6B207460A2EF4D33149FDF7EAFD3149E6
:10273000A860884201DD64201AE02F49884201DA4E
:10274000002015E0FDF7EEFF2C4A2D4BFDF7CEFEE5
:102750002C4E00223346FDF7D1FE284A2A4B524226
:10276000FDF734FF00223346FDF7C0FEFDF7BCFF46
:10277000287071E700080050102700004F4B000040
:1027800041540D0A00000000696E636F7272656348
:102790007420726563657074696F6E0D0A000000C5
:1027A00041542B4353510D0A00000000100000203B
:1027B000726563656976656420636F7272656374C0
:1027C0006C790D0A000000001200002011000020AA
:1027D0009001002088000020130000201500002038
:1027E000140000209002002000040050000000208F
:1027F0000000204133338340000040406666666637
:1028000066661040000059409999F13F00000000B1
:10281000000000000102030406070809030406087B
:102820000C1018203000000000010203040000001A
:1028300050280008000000202C000000942500080B
:102840007C2800082C00002064070000A425000854
:102850000000000000000000000000000000000078
:102860000000000000000000010000000400000063
:0C2870000000000000002000000000003C
:04000005080000C12E
:00000001FF
